:020000040800F2
:10000000008001200D4200081112000813120008A0
:10001000151200081712000819120008000000004D
:100020000000000000000000000000001B1200089B
:100030001D120008000000001F1200082112000815
:100040005D4200085D4200085D4200085D42000814
:100050005D4200085D4200085D4200085D42000804
:100060005D4200085D4200085D4200085D420008F4
:100070005D4200085D4200085D4200085D420008E4
:100080005D4200085D4200085D4200085D420008D4
:100090005D4200085D4200085D4200085D420008C4
:1000A0005D4200085D4200085D4200085D420008B4
:1000B0005D4200085D4200085D4200085D420008A4
:1000C0005D4200085D4200085D4200085D42000894
:1000D0005D4200085D4200085D4200085D42000884
:1000E0005D4200085D4200085D4200085D42000874
:1000F0005D4200085D4200085D4200085D42000864
:100100005D4200085D4200085D4200085D42000853
:100110005D4200085D4200085D4200085D42000843
:100120005D4200085D4200085D4200085D42000833
:100130005D4200085D4200085D4200085D42000823
:100140005D4200085D4200085D4200085D42000813
:100150005D4200085D4200085D4200085D42000803
:100160005D4200085D4200085D4200085D420008F3
:100170005D4200085D4200085D420008000000008A
:080180005D4200085D42000829
:1001900001F0FF01102A2BDB10F0070F08D010F838
:1001A000013B013A8B422DD010F0070F42B3F6D13C
:1001B000F0B441EA012141EA014122F007047FF055
:1001C00000070023F0E80256083C85EA010586EAAC
:1001D000010685FA47F5A3FA87F586FA47F6A5FAE8
:1001E00087F68EB9EED1F0BC01F0FF0102F00702F4
:1001F00032B110F8013B013A83EA010313B1F8D19F
:100200000020704701387047002D06BF354603387F
:10021000073815F0010F07D1013015F4807F02BFB8
:10022000013015F4C03F0130F0BC0138704700BF09
:10023000034613F8012B002AFBD1181A0138704726
:1002400081F0004102E000BF83F0004330B54FEA87
:1002500041044FEA430594EA050F08BF90EA020FF4
:100260001FBF54EA000C55EA020C7FEA645C7FEA87
:10027000655C00F0E2804FEA5454D4EB5555B8BFAA
:100280006D420CDD2C4480EA020281EA030382EA1B
:10029000000083EA010180EA020281EA0303362DAD
:1002A00088BF30BD11F0004F4FEA01314FF4801C80
:1002B0004CEA113102D0404261EB410113F0004F92
:1002C0004FEA03334CEA133302D0524263EB430349
:1002D00094EA050F00F0A780A4F10104D5F1200EE7
:1002E0000DDB02FA0EFC22FA05F2801841F1000142
:1002F00003FA0EF2801843FA05F359410EE0A5F116
:1003000020050EF1200E012A03FA0EFC28BF4CF046
:10031000020C43FA05F3C01851EBE37101F00045FC
:1003200007D54FF0000EDCF1000C7EEB00006EEB09
:100330000101B1F5801F1BD3B1F5001F0CD3490893
:100340005FEA30004FEA3C0C04F101044FEA4452EA
:1003500012F5800F80F09A80BCF1004F08BF5FEA71
:10036000500C50F1000041EB045141EA050130BD51
:100370005FEA4C0C404141EB0101013C28BFB1F563
:10038000801FE9D291F0000F04BF01460020B1FAAE
:1003900081F308BF2033A3F10B03B3F120020CDA81
:1003A0000C3208DD02F1140CC2F10C0201FA0CF05F
:1003B00021FA02F10CE002F11402D8BFC2F1200CC4
:1003C00001FA02F120FA0CFCDCBF41EA0C0190407A
:1003D000E41AA2BF01EB0451294330BD6FEA0404C3
:1003E0001F3C1CDA0C340EDC04F11404C4F12002AE
:1003F00020FA04F001FA02F340EA030021FA04F3C0
:1004000045EA030130BDC4F10C04C4F1200220FA16
:1004100002F001FA04F340EA0300294630BD21FA54
:1004200004F0294630BD94F0000F83F4801306BF1A
:1004300081F480110134013D4EE77FEA645C18BF0E
:100440007FEA655C29D094EA050F08BF90EA020FA5
:1004500005D054EA000C04BF1946104630BD91EA9D
:10046000030F1EBF0021002030BD5FEA545C05D1A0
:100470004000494128BF41F0004130BD14F58004DF
:100480003CBF01F5801130BD01F0004545F0FE4153
:1004900041F470014FF0000030BD7FEA645C1ABF88
:1004A000194610467FEA655C1CBF0B46024650EABF
:1004B000013406BF52EA033591EA030F41F40021EB
:1004C00030BD00BF90F0000F04BF0021704730B571
:1004D0004FF4806404F132044FF000054FF0000146
:1004E00050E700BF90F0000F04BF0021704730B507
:1004F0004FF4806404F1320410F0004548BF4042DC
:100500004FF000013EE700BF42004FEAE2014FEA30
:1005100031014FEA02701FBF12F07F4393F07F4F0B
:1005200081F06051704732F07F4208BF704793F00E
:100530007F4F04BF41F40021704730B54FF4607421
:1005400001F0004521F000411CE700BF50EA010224
:1005500008BF704730B54FF000050AE050EA0102CD
:1005600008BF704730B511F0004502D5404261EB3D
:1005700041014FF4806404F132045FEA915C3FF47E
:10058000D8AE4FF003025FEADC0C18BF03325FEA1B
:10059000DC0C18BF033202EBDC02C2F1200300FACC
:1005A00003FC20FA02F001FA03FE40EA0E0021FAF1
:1005B00002F11444BDE600BF70B54FF0FF0C4CF4DF
:1005C000E06C1CEA11541DBF1CEA135594EA0C0F91
:1005D00095EA0C0F00F0DEF82C4481EA030621EACC
:1005E0004C5123EA4C5350EA013518BF52EA033507
:1005F00041F4801143F4801338D0A0FB02CE4FF0B9
:100600000005E1FB02E506F00042E0FB03E54FF0E8
:100610000006E1FB03569CF0000F18BF4EF0010EE0
:10062000A4F1FF04B6F5007F64F5407404D25FEADC
:100630004E0E6D4146EB060642EAC62141EA55518F
:100640004FEAC52040EA5E504FEACE2EB4F1FD0CD1
:1006500088BFBCF5E06F1ED8BEF1004F08BF5FEA4F
:10066000500E50F1000041EB045170BD06F0004601
:1006700046EA010140EA020081EA0301B4EB5C04AE
:10068000C2BFD4EB0C0541EA045170BD41F48011A6
:100690004FF0000E013C00F3AB8014F1360FDEBFCB
:1006A000002001F0004170BDC4F10004203C35DAA7
:1006B0000C341BDC04F11404C4F1200500FA05F32A
:1006C00020FA04F001FA05F240EA020001F00042CB
:1006D00021F0004110EBD37021FA04F642EB060141
:1006E0005EEA430E08BF20EAD37070BDC4F10C046B
:1006F000C4F1200500FA04F320FA05F001FA04F22F
:1007000040EA020001F0004110EBD37041F100011A
:100710005EEA430E08BF20EAD37070BDC4F1200525
:1007200000FA05F24EEA020E20FA04F301FA05F28D
:1007300043EA020321FA04F001F0004121FA04F235
:1007400020EA020000EBD3705EEA430E08BF20EA05
:10075000D37070BD94F0000F0FD101F0004640003F
:1007600041EB010111F4801F08BF013CF7D041EAC1
:10077000060195F0000F18BF704703F000465200C5
:1007800043EB030313F4801F08BF013DF7D043EA96
:100790000603704794EA0C0F0CEA135518BF95EA4C
:1007A0000C0F0CD050EA410618BF52EA4306D1D1D3
:1007B00081EA030101F000414FF0000070BD50EAF2
:1007C000410606BF1046194652EA430619D094EA7C
:1007D0000C0F02D150EA013613D195EA0C0F05D166
:1007E00052EA03361CBF104619460AD181EA0301BA
:1007F00001F0004141F0FE4141F470014FF0000072
:1008000070BD41F0FE4141F4780170BD70B54FF00C
:10081000FF0C4CF4E06C1CEA11541DBF1CEA13558C
:1008200094EA0C0F95EA0C0F00F0A7F8A4EB05046E
:1008300081EA030E52EA03354FEA013100F0888065
:100840004FEA03334FF0805545EA131343EA12632E
:100850004FEA022245EA111545EA10654FEA0026E3
:100860000EF000419D4208BF964244F1FD0404F59C
:10087000407402D25B084FEA3202B61A65EB0305F8
:100880005B084FEA32024FF480104FF4002CB6EBB5
:10089000020E75EB030E22BFB61A754640EA0C0035
:1008A0005B084FEA3202B6EB020E75EB030E22BF75
:1008B000B61A754640EA5C005B084FEA3202B6EBB6
:1008C000020E75EB030E22BFB61A754640EA9C0075
:1008D0005B084FEA3202B6EB020E75EB030E22BF45
:1008E000B61A754640EADC0055EA060E18D04FEA03
:1008F000051545EA16754FEA06164FEAC30343EAA3
:1009000052734FEAC2025FEA1C1CC0D111F4801F6F
:100910000BD141EA00014FF000004FF0004CB6E768
:1009200011F4801F04BF01430020B4F1FD0C88BF07
:10093000BCF5E06F3FF6AFAEB5EB030C04BFB6EB12
:10094000020C5FEA500C50F1000041EB045170BD05
:100950000EF0004E4EEA113114EB5C04C2BFD4EB32
:100960000C0541EA045170BD41F480114FF0000EB6
:10097000013C90E645EA060E8DE60CEA135594EA32
:100980000C0F08BF95EA0C0F3FF43BAF94EA0C0F35
:100990000AD150EA01347FF434AF95EA0C0F7FF4AA
:1009A00025AF104619462CE795EA0C0F06D152EAFE
:1009B00003353FF4FDAE1046194622E750EA4106E2
:1009C00018BF52EA43067FF4C5AE50EA41047FF4F3
:1009D0000DAF52EA43057FF4EBAE12E74FF0FF3C58
:1009E00006E000BF4FF0010C02E000BF4FF0010C29
:1009F0004DF804CD4FEA410C7FEA6C5C4FEA430CA2
:100A000018BF7FEA6C5C1BD001B050EA410C0CBFF0
:100A100052EA430C91EA030F02BF90EA020F002052
:100A2000704710F1000F91EA030F58BF994208BFB9
:100A300090422CBFD8176FEAE37040F00100704776
:100A40004FEA410C7FEA6C5C02D150EA013C07D1CD
:100A50004FEA430C7FEA6C5CD6D152EA033CD3D018
:100A60005DF8040B704700BF8446104662468C4612
:100A70001946634600E000BF01B5FFF7B7FF002845
:100A800048BF10F1000F01BD4DF808EDFFF7F4FF6E
:100A90000CBF012000205DF808FB00BF4DF808EDF9
:100AA000FFF7EAFF34BF012000205DF808FB00BF1C
:100AB0004DF808EDFFF7E0FF94BF012000205DF83E
:100AC00008FB00BF4DF808EDFFF7CEFF94BF0120F3
:100AD00000205DF808FB00BF4DF808EDFFF7C4FFEC
:100AE00034BF012000205DF808FB00BF4FEA410C35
:100AF0007FEA6C5C02D150EA013C0AD14FEA430C18
:100B00007FEA6C5C02D152EA033C02D14FF0000054
:100B100070474FF0010070474FEA410212F5001292
:100B200015D211D56FF47873B3EB625212D94FEA34
:100B3000C12343F0004343EA505311F0004F23FA1E
:100B400002F018BF404270474FF00000704750EA73
:100B5000013005D111F0004008BF6FF00040704730
:100B60004FF00000704700BF53B94AB9002908BFD1
:100B700000281CBF4FF0FF314FF0FF3000F00CB8E1
:100B8000ADF1080C6DE904CE06F02CFADDF804E0B6
:100B9000DDE9022304B07047704700BF0348044BEF
:100BA000834202D0034B03B118477047D80100209D
:100BB000D8010020000000000548064B1B1AD90F81
:100BC00001EBA301491002D0034B03B11847704752
:100BD000D8010020D80100200000000010B5064C0C
:100BE000237843B9FFF7DAFF044B13B10448AFF39E
:100BF00000800123237010BDD801002000000000F8
:100C0000DC72000808B5054B1BB105490548AFF378
:100C10000080BDE80840FFF7CFBF00BF0000000024
:100C2000DC010020DC72000882B00090019169B103
:100C300007EE900AF8EE677A07EE101AB8EE477AD8
:100C4000C0EE076A27EEA60A02B070479FED010AC0
:100C5000FAE700BF0000000008B564232A22024919
:100C6000024803F045F908BDF8720008400300206F
:100C700038B50E4800F0B8FFA0B90A210B4800F0C3
:100C800011FC48B9094D284600F09AFC84B2284668
:100C900001F072F8204638BD044801F06DF84FF6B7
:100CA000FF74F7E74FF6FF74F4E700BF7802002007
:100CB0002DE9F0412DED028B84B04B4A13680133CE
:100CC000136002A9072003F081FA0546FFF7D0FF61
:100CD00006469FED460A40F6FF71FFF7A5FF10EEAE
:100CE000108A65B94FF6FF739E4252D09DED038A7C
:100CF00038EE408ADFED3E7A28EE278A01E09FED4C
:100D00003D8A3D4C384B1B683C4A8021204603F00D
:100D1000BFFF642382B22146394803F0E9F8002D71
:100D20003AD1BDF808400398FFF7EEFBCDE900018A
:100D30002346344A8021304803F0AAFF642382B25C
:100D40002D492F4803F0D4F84FF6FF739E422DD063
:100D50004046FFF7D9FBCDE9000133462A4A8021FE
:100D6000254803F095FF642382B22349244803F009
:100D7000BFF81DB94FF6FF739E4221D1FFF76CFFFC
:100D80004FF4FA7001F054F904B0BDEC028BBDE8E9
:100D9000F0819FED188AB4E7174C1C4F0FCF0FC49A
:100DA00097E80F0007C423701C20C7E7124C184FA8
:100DB0000FCF0FC497E80F0007C423701C20D2E7A1
:100DC0000D4C18EE100AFFF79FFBCDE90001114A08
:100DD0008021204603F05CFF642382B2214608484C
:100DE00003F086F8CAE700BFF40100203333534014
:100DF00000007A4400000000F8010020247300087D
:100E000040030020387300087C7300085C730008FE
:100E1000A0730008C073000872B6FEE708B503F0BF
:100E200071F97F21074800F0C8FF40B94FF47A7389
:100E30004FF4AA720449054803F05AF808BDFFF7B9
:100E4000EBFF00BF78020020E073000840030020A1
:100E500000B597B04422002105A803F093FF0023BA
:100E6000009301930293039304934FF4007002F0F4
:100E700021FA20BB022305934FF4807208921022BE
:100E800009920F931093012211920A2212920722C3
:100E900013921493159305A801F07AF988B90F23DA
:100EA00000930323019300230293039304930421EB
:100EB000684601F07BFC30B917B05DF804FBFFF722
:100EC000ABFFFFF7A9FFFFF7A7FF08B501F088F810
:100ED000FFF7BEFF00F010F800F03AF900F03EF81E
:100EE00000F0DCF84FF4FA7001F0A2F8FFF796FF7B
:100EF000FFF7DEFEFCE7000070B588B003AD00240C
:100F000003940494059406940794124BDA6C42F00F
:100F10000102DA64DA6C02F001020192019ADA6CE1
:100F200042F00202DA64DB6C03F002030293029BDC
:100F3000094E01224021304602F0AEF940230393CE
:100F400001230493059406942946304602F0A4F840
:100F500008B070BD001002400004004800B58BB01E
:100F60000023079308930993019302930393049337
:100F7000059306931E481F4A026043608360C36066
:100F8000036104224261037643760122C26180F844
:100F900020308362C36280F83030436380F8383099
:100FA00000F088F9D0B90023079307A9104800F092
:100FB00051FFB0B9104B0193062302930023039312
:100FC0007F2204920422059206930DEB0201084849
:100FD00000F0FAFA40B90BB05DF804FBFFF71CFF14
:100FE000E1E7FFF719FFE5E7FFF716FFF3E700BFBB
:100FF00078020020000004502000F01410B5AAB0C0
:101000000446002125912691279128912991882233
:1010100003A803F0B7FE22681E4B9A4201D02AB003
:1010200010BD4FF4804303934FF08053219302236C
:101030000493012205920822069207220792089340
:1010400009934FF080730A9303A801F0FBFDF0B9F8
:10105000114BDA6C42F40052DA64DA6C02F400529A
:101060000192019ADA6C42F00102DA64DB6C03F05F
:1010700001030293029B012325930B232693002354
:10108000279325A94FF0904002F006F8C7E7FFF735
:10109000C3FEDDE7000004500010024008B5104810
:1010A000104B03604FF482734360002383604FF45E
:1010B000E062C260036143614FF4007282613022DA
:1010C000C2610362436283620722C26203634363B5
:1010D00002F0AFFA00B908BDFFF79EFEFBE700BFC4
:1010E000DC0200200030014000B589B000230393EA
:1010F00004930593069307930268144B9A4202D017
:1011000009B05DF804FB03F560431A6E42F48052A7
:101110001A661A6E02F480520192019ADA6C42F059
:101120000102DA64DB6C03F001030293029BE0230B
:10113000039302230493032306930523079303A930
:101140004FF0904001F0A8FFDAE700BF0030014007
:1011500008B50B480B4B03604FF4E13343600023A9
:101160008360C36003610C2242618361C3610362D7
:10117000436202F08BFF00B908BDFFF74DFEFBE7AD
:10118000400300200044004010B5AAB004460021EE
:1011900025912691279128912991882203A803F06F
:1011A000F1FD2268184B9A4201D02AB010BD0223EB
:1011B000039303A801F046FD10BB144B9A6D42F453
:1011C00000329A659A6D02F400320192019ADA6C4B
:1011D00042F00102DA64DB6C03F001030293029B2C
:1011E0000C2325930223269300232793032328937C
:1011F0000723299325A94FF0904001F04DFFD4E734
:10120000FFF70AFED9E700BF00440040001002408B
:10121000FEE7FEE7FEE7FEE7FEE770477047704730
:1012200008B500F0F3FE08BD82B00A4B1A6E42F01A
:1012300001021A661A6E02F001020092009A9A6D7B
:1012400042F080529A659B6D03F080530193019B9D
:1012500002B070470010024010B430300B0A9B00FF
:1012600003F00C03C45801F01F014FF01F0C0CFADF
:1012700001FC24EA0C0CC2F384628A404CEA0202AC
:10128000C2505DF8044B704710B414304B0E9B00F5
:1012900003F00403C458C1F304514FF0070C0CFAD7
:1012A00001FC24EA0C0C8A404CEA0202C2505DF8B0
:1012B000044B704730B583B000230193002800F041
:1012C000E1800446436D13B323689A6812F0005F0F
:1012D00005D09A6822F0204222F03F029A602268EC
:1012E000936813F0805F1FD1936823F0104323F0BD
:1012F0003F0343F080539360634B1B689B09634A31
:10130000A2FB03239B0901335B00019309E0FFF774
:1013100075FE0023A36584F85030D5E7019B013B9F
:101320000193019B002BF9D12268936813F0805F31
:1013300040F08180636D43F010036365A36D43F05B
:101340000103A3650120936813F0040300D0012377
:10135000616D11F0100F40F08E80002B40F08B80FB
:10136000636D23F4817343F002036365936813F0A4
:10137000010F19D1464B9A6812F0010200D00122E8
:10138000444B9B6813F0010300D001231343424AEE
:10139000926812F0010F07D133B963683F498A6838
:1013A00022F47C1213438B60627E636B43EA423308
:1013B000E2681343A268134394F8202043EA0243EF
:1013C000012A3AD0A26A22B102F47072E16A0A4399
:1013D00013432168CD68324A2A401A43CA60226802
:1013E000936813F0080300D00123ABB9237E94F86F
:1013F0003010490041EA8331D36823F4804323F05D
:1014000002030B43D36094F83830012B1AD02268C2
:10141000136923F0010313612369012B22D0226891
:10142000136B23F00F031363636D23F0030343F087
:101430000103636524E0002085E7626A013A43EA1C
:101440004243BFE721680B696FF38A03E26B256CA7
:101450002A43656C2A43A56C2A43134343F00103D6
:101460000B61D9E721680B6B23F00F03E269013AA6
:1014700013430B63D8E7636D43F0100363650120EA
:1014800003B030BD0120FBE708000020632D3E05BE
:1014900000000450000104500002045000030450F6
:1014A00007C0F0FF2DE9F04104460E46424B9F680D
:1014B00007F01F074569082D0DD0092F30D840F2DD
:1014C0002123FB4013F0010F2AD00368DB6813F0DF
:1014D000010F1FD1042500F0A5FD804623681A687E
:1014E0002A422AD1B6F1FF3FF8D000F09BFDA0EBD5
:1014F0000800B04201D8002EF0D123681B682B42AF
:10150000ECD1636D43F004036365002384F850302D
:1015100003204CE0436D43F020034365012046E087
:10152000254B9B6813F4604F01D10425D3E7636D0D
:1015300043F020036365012039E0626D42F40072DC
:101540006265DA6812F4406F11D1627E7AB91A6866
:1015500012F0080F0BD0626D22F480726265626D2A
:1015600012F4805F03D1626D42F001026265134A9A
:10157000934214D01A46934207D0092F12D840F252
:101580002121F94011F0010F0CD0DA68082D0BD0A1
:1015900012F4804F0DD10C221A60002007E0A2F552
:1015A0008072E8E7D268F1E708221A600020BDE8FF
:1015B000F0810020FBE700BF00030450000104504D
:1015C0000368186C70470000F0B583B000230193E6
:1015D00090F85030012B00F00C8204460D46012398
:1015E00080F850300068836813F0040F09D0636DF1
:1015F00043F0200363650120002384F8503003B0DA
:10160000F0BD4968052907D8023903294ED8DFE81B
:1016100001F0024F484A0C212A68FFF71DFE20689E
:10162000836813F0040300D00123826812F00802DB
:1016300000D001220BB9002A3CD02268936813F035
:10164000010F17D12B68E868D2F8B010C3F3120667
:1016500021EA060100F0180CA84820FA0CF003401B
:10166000C3F312030B43C2F8B030EA68A44B9A42AA
:1016700000F0A5802B68A34A134200F0B681A24A6D
:10168000926802F0E070A1498B4200F05881A049B5
:101690008B4200F07F819F498B4200F093810020B4
:1016A000AAE71821B8E74FF48071B5E70621B3E740
:1016B0001221B1E7AA682968FFF7E6FD6A69216887
:1016C000CB68C3F3C1035B009A40286904280ED09D
:1016D0002E68603151F820708F4B3B4006F0F84681
:1016E0003243134343F0004341F82030A5E70B6E2B
:1016F0000A6EC2F384622B68C3F3120080BBC3F38B
:1017000084639A4234D021684B6E4A6EC2F384627D
:101710002B68C3F3120080BBC3F384639A4234D0B6
:1017200021688B6E8A6EC2F384622B68C3F3120049
:1017300080BBC3F384639A4234D02168CB6ECA6EF7
:10174000C2F384622B68C3F3120080BBC3F38463CB
:101750009A427FF472AFCB6E23F00043CB666CE706
:1017600093FAA3F313B1B3FA83F3CAE72023C8E7CC
:101770000B6E23F000430B66C5E793FAA3F313B196
:10178000B3FA83F3CAE72023C8E74B6E23F0004384
:101790004B66C5E793FAA3F313B1B3FA83F3CAE731
:1017A0002023C8E78B6E23F000438B66C5E793FACE
:1017B000A3F313B1B3FA83F3CAE72023C8E7206881
:1017C0002B68C3F312063EBB9A0E013202F01F02D1
:1017D000092A8CBF00220122002A55D05EBB990E37
:1017E0000131890601F0F8418EBB4FEA936C0CF190
:1017F000010C0CF01F0C012202FA0CF21143AEBBDB
:101800009B0E013303F01F0303EB43031B05194336
:10181000AA68FFF739FD2DE793FAA3F24AB1B2FAAD
:1018200082F2013202F01F02092A8CBF002201223B
:10183000D2E72022F5E793FAA3F131B1B1FA81F1B1
:101840000131890601F0F841CEE72021F8E793FA4B
:10185000A3F24AB1B2FA82F2013202F01F024FF053
:10186000010C0CFA02F2C9E72022F5E793FAA3F380
:1018700043B1B3FA83F3013303F01F0303EB4303D4
:101880001B05C4E72023F6E7E6B9990E0131890666
:1018900001F0F84116BB4FEA936C0CF1010C0CF00F
:1018A0001F0C012202FA0CF21143BEBB9B0E013346
:1018B00003F01F0303EB43031E3B1B0543F00073C0
:1018C0001943A5E793FAA3F131B1B1FA81F10131DE
:1018D000890601F0F841DDE72021F8E793FAA3F249
:1018E0004AB1B2FA82F2013202F01F024FF0010C4B
:1018F0000CFA02F2D8E72022F5E700BFFFFF07004D
:1019000000007F400000088000030450000052C720
:10191000000084CB0100008000F0FF0393FAA3F3E2
:101920005BB1B3FA83F3013303F01F0303EB43030B
:101930001E3B1B0543F00073C2E72023F3E712F4BC
:10194000000F7FF4A4AE23682B4A934205D002F522
:101950000072934201D000204EE640F40000274A76
:10196000936823F0E07318439060254B1B689B0934
:10197000244AA2FB03239B09013303EB43039B008F
:10198000019302E0019B013B0193019B002BF9D1E4
:10199000002031E612F0807F7FF47DAE2368164A86
:1019A000934205D002F50072934201D0002023E655
:1019B00040F0807311498A6822F0E07213438B6013
:1019C000002019E612F4800F11D122680A4B9A42C6
:1019D00001D0002010E640F4800308498A6822F014
:1019E000E07213438B60002006E6002004E600202E
:1019F00002E6022003E600BF00000450000304508A
:101A000008000020632D3E0570B5044603689A68FF
:101A100012F0040200D00122986810F0080000D0F3
:101A200001200AB900286DD0DA6812F0007F04D0D6
:101A3000208B40F2011290424ED0022912D023682E
:101A40009A6812F0040F0BD09A6812F0020F07D1B7
:101A50009A6822F0004222F03F0242F010029A609F
:101A6000012947D023689A6812F0080F0BD09A68B2
:101A700012F0020F07D19A6822F0004222F03F02D2
:101A800042F020029A60022936D0032936D10C2573
:101A900000F0C8FA064623689B682B4230D000F05D
:101AA000C1FA801B0528F6D923689B682B42F2D027
:101AB000636D43F010036365A36D43F00103A365F9
:101AC00001201EE0636D43F010036365A36D43F0D6
:101AD0000103A365012014E00022196811F0400FF2
:101AE00004D109498A42EDD80132F6E740221A6052
:101AF0000121A4E70425CBE70825C9E70425C7E7AA
:101B0000002070BD0020FCE7FFFF3FA330B583B08D
:101B10000023019303689A6812F0010F58D104461C
:101B200099682D4A114219D19A6822F0004222F098
:101B30003F0242F001029A60284B9B6813F4000FA9
:101B40001CD0274B1B689B09264AA2FB03239B0939
:101B5000013303EB43039B0001930CE0436D43F01F
:101B600010034365836D43F001038365012030E07A
:101B7000019B013B0193019B002BF9D100F052FA2C
:101B8000054623681A6812F0010F1FD19A6812F0F7
:101B9000010F07D19A6822F0004222F03F0242F082
:101BA00001029A6000F03EFA431B022BE9D9236838
:101BB0001B6813F0010FE4D1636D43F010036365FC
:101BC000A36D43F00103A365012002E0002000E0C3
:101BD000002003B030BD00BF3F0000800003045070
:101BE00008000020632D3E0538B53C4B9D68036816
:101BF0009B6813F0040F6CD1044605F01F0590F8A4
:101C00005030012B67D0012380F85030FFF77EFF62
:101C100000285AD1636D23F4706323F0010343F469
:101C20008073636523682E4A934236D01A469342E6
:101C300000D01DB9626D22F480126265626D12F4EB
:101C4000805F2DD0A26D22F00602A2651C221A60D0
:101C5000002384F850302368214A934223D01A4647
:101C6000934207D0092D21D840F22121E94011F0FB
:101C7000010F1BD0DA6812F0007F05D0626D22F4EC
:101C8000405242F4805262659A6822F0004222F08B
:101C90003F0242F004029A601CE0A2F58072C6E79F
:101CA0000022A265D2E7A2F58072D9E7636D43F402
:101CB00080136365D36813F0007F0BD0636D23F44A
:101CC000405343F48053636504E0002384F85030AC
:101CD00000E0022038BD0220FCE700BF00030450F2
:101CE0000001045038B504460268936813F00203FB
:101CF00000D00123916811F0010F39D0002B39D1A8
:101D0000936803F00D03012B09D0636D43F01003BA
:101D10006365A36D43F00103A365012029E0936887
:101D200023F0004323F03F0343F002039360236852
:101D300003221A6000F076F9054623689B6813F0C9
:101D4000010F13D000F06EF9401B0228F5D923686B
:101D50009B6813F0010FF0D0636D43F010036365CF
:101D6000A36D43F00103A365012002E0002000E021
:101D7000002038BD0020FCE790F85030012B1AD02D
:101D800010B50446012380F850300321FFF73CFED4
:101D900018B1002384F8503010BD2046FFF7A2FF91
:101DA0000028F6D1636D23F4885323F0010343F038
:101DB00001036365EDE70220704730B583B000236F
:101DC000019390F85030012B41D004460D46012379
:101DD00080F85030FFF786FF80BB636D23F4885393
:101DE00023F0020343F0020363652268936823F043
:101DF000404323F03F0305F080452B4343F000436D
:101E0000936023689B68002B06DB636D23F003035C
:101E100043F00103636515E0019B01330193019BCE
:101E2000B3F5912FEDD3636D23F0120343F010034C
:101E30006365002384F85030012006E0636D43F0B1
:101E400010036365002384F8503003B030BD0220D6
:101E5000FBE7000090F85020012A00F08E8010B4BB
:101E60009BB00346012280F8502000221692179260
:101E70000068434A90423ED000220192019A002A13
:101E80003DD0926812F0040200D00122806810F068
:101E9000040F5ED1002A5CD10A68002A38D0394C80
:101EA000A26822F46042486893F830C040EA4C309F
:101EB0000243A260324A906810F0010000D0012075
:101EC000314A926812F0010200D0012202432F48E9
:101ED000806810F0010F48D1002A48D1294CA2682F
:101EE00022F4716222F00F020868896801430A43F4
:101EF000A260002032E002F580720192BEE75A6DC6
:101F000042F020025A65002283F85020012028E088
:101F10001C498A6822F460428A60194A916811F06B
:101F2000010100D00121184A926812F0010200D08C
:101F300001220A431549896811F0010F19D1D2B95C
:101F400010498A6822F4716222F00F028A60002030
:101F500004E05A6D42F020025A650120002283F805
:101F600050201BB05DF8044B70470020F6E70020BE
:101F7000F4E70020F2E70020F0E70220704700BFFE
:101F800000000450000304500001045000020450FB
:101F9000104B1B780BB90120704710B504464FF465
:101FA0007A70B0FBF3F30C4A1068B0FBF3F001F069
:101FB0001FFA68B90F2C01D901200AE0002221463E
:101FC0004FF0FF3001F004FA044B1C60002000E0E9
:101FD000012010BD000000200800002004000020A7
:101FE00010B5094A136843F480731360032001F0AD
:101FF000DDF90020FFF7CCFF10B10124204610BD11
:102000000446FFF711F9F9E700200240034B1B7863
:10201000034A11680B441360704700BF00000020A2
:10202000C8030020014B1868704700BFC803002098
:1020300038B50446FFF7F6FF0546B4F1FF3F02D07E
:10204000044B1B781C44FFF7EDFF401BA042FAD362
:1020500038BD00BF0000002030B583B00446204BDF
:102060009B6D13F0805F0BD001F01CF9B0F5007F81
:1020700017D0802C1FD82DD0702C2DD000211BE024
:10208000174DAB6D43F08053AB65AB6D03F08053E0
:102090000193019B01F006F9AB6D23F08053AB6512
:1020A000E4E7802C03D9A02C03D9022104E000210D
:1020B00002E0012100E003210A4A136823F007032C
:1020C0000B431360136803F007038B4206D1002013
:1020D00003B030BD0221EFE70121EDE70120F7E772
:1020E0000010024000200240254A9368D26802F0A6
:1020F000030213F00C0309D00C2B05D0042B3BD0AA
:10210000082B3BD000200FE0012AF7D11C4A1268AF
:1021100012F0080F0CD11A4AD2F89420C2F303220D
:10212000184951F8220013B10C2B06D0002070473B
:10213000134A1268C2F30312F2E7114BDB6803F093
:102140000303022B16D0032B00D10F480C49CA6899
:10215000C2F302120132CB68C3F3062300FB03F380
:10216000B3FBF2F3C868C0F3416001304000B3FB39
:10217000F0F070470548E9E70448704702487047A7
:10218000001002405475000800127A000024F40088
:10219000002800F0F182F0B583B00446964B9D68AC
:1021A00005F00C05DE6806F00306036813F0100F57
:1021B0005AD0E5B10C2D18D0A369002B00F0BB80DC
:1021C0008D4A136843F001031360FFF72BFF0746A6
:1021D000894B1B6813F0020F40F09A80FFF722FF33
:1021E000C01B0228F4D90320D1E2012EE4D1824B96
:1021F0001B6813F0020F03D0A369002B00F0BE820E
:10220000206A7D4B1B6813F0080F5BD07A4B1B686C
:1022100003F0F00398425CD8774B1A6842F008024A
:102220001A601A6822F0F002216A0A431A605A689A
:1022300022F47F42E16942EA01225A60002D60D017
:10224000FFF752FF6C4B9B68C3F303136B4AD35CDD
:1022500003F01F03D8406A4B18606A4B1868FFF7F9
:1022600097FE002840F09382236813F0010F00F0DE
:102270008180082D75D00C2D71D06368B3F5803F37
:1022800000F09780B3F5A02F00F099805A4B1A68A0
:1022900022F480321A601A6822F480221A6063687D
:1022A000002B00F09980FFF7BDFE0746524B1B68DC
:1022B00013F4003F5ED1FFF7B5FEC01B6428F5D9CB
:1022C000032064E24C4BD3F894301B0903F0F00375
:1022D000A0E7FFF7C1FE002840F05282464B1A6883
:1022E00042F008021A601A6822F0F002216A0A43DA
:1022F0001A605A6822F47F42E16942EA01225A6078
:102300009EE7206AFFF7A8FE002899D001203EE250
:10231000394B1A6842F008021A601A6822F0F0027B
:10232000216A0A431A605A6822F47F42E16942EA4C
:1023300001225A6098E7304A136823F001031360C2
:10234000FFF770FE07462C4B1B6813F0020F8BD073
:10235000FFF768FEC01B0228F5D9032017E2032E01
:102360008BD1254B1B6813F4003F03D06368002B0F
:1023700000F00882236813F0020F58D0042D45D0D6
:102380000C2D41D0E368002B77D01B4A136843F42F
:1023900080731360FFF746FE0646174B1B6813F465
:1023A000806F61D1FFF73EFE801B0228F5D9032024
:1023B000EDE1114A136843F4803313606FE703F1D2
:1023C0008043A3F53C331A6842F480221A601A68ED
:1023D00042F480321A6062E7FFF724FE0746064B9C
:1023E0001B6813F4003FC5D0FFF71CFEC01B642818
:1023F000F5D90320CBE100BF001002408C75000826
:102400000800002004000020022EBBD1A34B1B6853
:1024100013F4806F03D0E368002B00F0B5819F4A6E
:10242000536823F0F853216943EA0163536023683A
:1024300013F0080F4CD063699BB3984AD2F89430DC
:1024400043F00103C2F89430FFF7ECFD0646934BCE
:10245000D3F8943013F0020F3AD1FFF7E3FD801B5D
:102460000228F4D9032092E18C4A536823F0F853F0
:10247000216943EA01635360D9E7884A136823F46A
:1024800080731360FFF7CEFD0646844B1B6813F480
:10249000806FCCD0FFF7C6FD801B0228F5D9032042
:1024A00075E17E4AD2F8943023F00103C2F89430EB
:1024B000FFF7B8FD0646794BD3F8943013F0020FBE
:1024C00006D0FFF7AFFD801B0228F4D903205EE1A0
:1024D000236813F0040F7AD0704B9B6D13F0805F6C
:1024E00036D16E4B9A6D42F080529A659B6D03F027
:1024F00080530193019B0126694B1B6813F4807F75
:1025000028D0A368012B39D0052B3FD0634BD3F8DB
:10251000902022F00102C3F89020D3F8902022F0FE
:102520000402C3F89020A368002B3DD0FFF77AFD8A
:1025300007465A4BD3F8903013F0020F46D1FFF7FD
:1025400071FDC01B41F288339842F2D903201EE18D
:102550000026D1E7524A136843F480731360FFF7F3
:1025600061FD07464E4B1B6813F4807FC9D1FFF70E
:1025700059FDC01B0228F5D9032008E1474AD2F8CB
:10258000903043F00103C2F89030CCE7434BD3F8CE
:10259000902042F00402C3F89020D3F8902042F03B
:1025A0000102C3F89020BEE7FFF73CFD07463B4B16
:1025B000D3F8903013F0020F08D0FFF733FDC01BA3
:1025C00041F288339842F2D90320E0E0EEB9A36AE1
:1025D000002B00F0DB80022B1DD00C2D00F0DD80E5
:1025E0002E4A136823F080731360FFF71BFD044627
:1025F0002A4B1B6813F0007F00F0B780FFF712FD35
:10260000001B0228F4D90320C1E0244A936D23F073
:1026100080539365DBE7214BDB6803F00301E26A3B
:1026200091420FD00C2D00F0B4801C4B1B6813F0AE
:10263000806F40F0B080194B1B6813F0805F31D081
:102640000120A4E003F07002216B0139B2EB011FFD
:10265000E8D103F4FE42616BB2EB012FE2D103F447
:102660000031A26B073A18BF01229142DAD103F47C
:10267000C001E26B5208013AB1EB425FD2D103F0E4
:10268000C063226C5208013AB3EB426FCAD1034BCC
:102690001B6813F0007F4ED0002078E0001002404D
:1026A000007000403E4A136823F080731360FFF708
:1026B000B9FC05463A4B1B6813F0007F06D0FFF7C4
:1026C000B1FC401B0228F5D9032060E0344AD368EE
:1026D00034491940E36A206B013843EA0013606B08
:1026E00043EA0023E06B4008013843EA4053206C82
:1026F0004008013843EA4063A06B000943EA4043C5
:102700001943D160136843F080731360D36843F0BA
:102710008073D360FFF786FC0446214B1B6813F0DF
:10272000007F06D1FFF77EFC001B0228F5D90320AD
:102730002DE000202BE01A4B1A6842F080721A60DC
:10274000DA6842F08072DA60FFF76CFC0446144BE2
:102750001B6813F0007F06D1FFF764FC031B022BFC
:10276000F5D9032013E0002011E00D4AD1680E4B8B
:102770000B40D36000200AE001207047012006E0F2
:10278000012004E0012002E0012000E0002003B06D
:10279000F0BD0120FBE70120F9E70120F7E700BFCA
:1027A000001002408C809DF9FCFFEEFE002800F036
:1027B000AF8070B50D460446594B1B6803F0070304
:1027C0008B420BD2564A136823F007030B43136066
:1027D000136803F007038B4240F09C80236813F0DA
:1027E000020F0CD0A2684F4B9B6803F0F0039A4293
:1027F00005D94C498B6823F0F0031A438A6023689B
:1028000013F0010F39D06368032B09D0022B26D0B7
:1028100063BB444A126812F0020F06D1012076E031
:10282000404A126812F0007F76D03E498A6822F052
:10283000030213438B60FFF7F5FB0646394B9B6899
:1028400003F00C036268B3EB820F16D0FFF7EAFBCC
:10285000801B41F288339842F0D9032057E0314A77
:10286000126812F4003FE0D1012050E02D4A1268B6
:1028700012F4806FD9D1012049E0236813F0020FD0
:102880000CD0A268274B9B6803F0F0039A4205D254
:1028900024498B6823F0F0031A438A60204B1B689D
:1028A00003F00703AB420AD91D4A136823F007035C
:1028B0002B431360136803F00703AB422ED1236848
:1028C00013F0040F06D0174A936823F4E063E1681D
:1028D0000B439360236813F0080F07D0114A9368E5
:1028E00023F46053216943EAC1039360FFF7FCFBC3
:1028F0000C4B9B68C3F303130B4AD35C03F01F0319
:10290000D8400A4B18600A4B1868FFF741FB70BDAE
:10291000012070470120FAE70120F8E70120F6E7DF
:1029200000200240001002408C75000808000020C2
:1029300004000020014B1868704700BF0800002009
:1029400008B5FFF7F7FF054B9B68C3F30223044A62
:10295000D35C03F01F03D84008BD00BF0010024045
:102960008475000808B5FFF7E5FF054B9B68C3F3C6
:10297000C223044AD35C03F01F03D84008BD00BF44
:102980000010024084750008F8B504460D46594B06
:10299000DB6813F0030F18D0564BDB6803F003031A
:1029A0000268934202D001263046F8BD002A00F0AA
:1029B0009D80504BDB68C3F302130133426893429E
:1029C00001D00126F0E7002619E00368022B56D05B
:1029D000032B5BD0012B40F08B80464A126812F02B
:1029E000020F5FD04348C26822F073026168013968
:1029F00043EA01131343C3600026002ED4D13D4A9D
:102A0000136823F080631360FFF70CFB0746394B14
:102A10001B6813F0006F05D0FFF704FBC31B022BEC
:102A2000F5D90326002EBFD1002D3DD131490B69C8
:102A300023F41F3323F44073A068E26812095204A0
:102A400042EA002213430B612A4A136843F0806371
:102A50001360FFF7E7FA0546264B1B6813F0006F7B
:102A600005D1FFF7DFFA401B0228F5D90326002E17
:102A70009AD1204A1369A1690B43136194E71D4A57
:102A8000126812F4806FADD101268DE7194A1268E1
:102A900012F4003FA6D1174A126812F4802FA1D178
:102AA000012681E70126A8E7012D0FD01148026910
:102AB00022F0C06222F4FE42A16863695B08013B18
:102AC0005B0643EA01231A430261BDE70948026934
:102AD00022F4C00222F4FE42A16823695B08013B94
:102AE0005B0543EA01231A430261ADE701265BE778
:102AF000012659E700100240F8B504460D46504B38
:102B0000DB6813F0030F18D04D4BDB6803F00303B1
:102B10000268934202D001263046F8BD002A00F038
:102B20008A80474BDB68C3F3021301334268934248
:102B300001D00126F0E7002618E00368022B55D0EB
:102B4000032B5AD0012B78D13D4A126812F0020FA4
:102B50005FD03B48C26822F073026168013943EAE2
:102B600001131343C3600026002ED5D1344A1368E5
:102B700023F080531360FFF755FA0746304B1B686C
:102B800013F0005F05D0FFF74DFAC31B022BF5D9F8
:102B90000326002EC0D1002D3DD129494B6923F4D5
:102BA0001F3323F44073A068E2681209520442EA1A
:102BB000002213434B61224A136843F08053136091
:102BC000FFF730FA05461E4B1B6813F0005F05D176
:102BD000FFF728FA401B0228F5D90326002E9BD1C7
:102BE000174A536961690B43536195E7144A1268A8
:102BF00012F4806FADD101268EE7114A126812F4EB
:102C0000003FA6D10E4A126812F4802FA1D10126EE
:102C100082E70126A8E70A48426922F0C06222F44E
:102C2000FE42A16823695B08013B5B0643EA01237E
:102C30001A434261BFE701266EE701266CE700BF39
:102C4000001002402DE9F04182B00446036813F4FD
:102C5000006F33D0436EB3F5000F15D00CD823B3FB
:102C6000B3F5800F05D100212030FFF745FF064660
:102C700020E001273E4623E0B3F5400F01D10026B6
:102C800008E001273E461BE05E4AD36843F48033E8
:102C9000D36000265B4AD2F8883023F44003616E8B
:102CA0000B43C2F8883000270AE000210430FFF708
:102CB0006BFE0646002EEDD0374601E000273E466B
:102CC000236813F4805F30D0A36EB3F1007F1FD070
:102CD0000DD81BB3B3F1807F06D1002104F1200091
:102CE000FFF70AFF064605E001273E461DE0B3F167
:102CF000407F0AD1C6B9434AD2F8883023F04073E6
:102D0000A16E0B43C2F888300FE001273E460CE06D
:102D10003C4AD36843F48033D360EBE70021201DA5
:102D2000FFF732FE0646E5E73746236813F4003F17
:102D300071D0344B9B6D13F0805F4ED1314B9A6D47
:102D400042F080529A659B6D03F080530193019B82
:102D50004FF001082C4A136843F480731360FFF7A7
:102D600061F90546284B1B6813F4807F05D1FFF7F6
:102D700059F9401B0228F5D90326002E46D1214BD4
:102D8000D3F8903013F4407319D0D4F884209A42C9
:102D900012D01C4AD2F8903023F44073D2F890102D
:102DA00041F48031C2F89010D2F8901021F48031B3
:102DB000C2F89010C2F8903013F0010F10D1002E1D
:102DC00040F027810F4AD2F8903023F44073D4F8B2
:102DD00084100B43C2F8903019E04FF00008B9E7B7
:102DE000FFF720F90546074BD3F8903013F0020F98
:102DF000E5D1FFF717F9401B41F288339842F2D929
:102E00000326DCE700100240007000403746B8F1AE
:102E1000000F40F00081236813F0010F08D09D4A95
:102E2000D2F8883023F00303A16B0B43C2F888303B
:102E3000236813F0020F08D0964AD2F8883023F0A6
:102E40000C03E16B0B43C2F88830236813F0040FC6
:102E500008D0904AD2F8883023F03003216C0B431D
:102E6000C2F88830236813F0080F08D0894AD2F8D6
:102E7000883023F0C003616C0B43C2F888302368AC
:102E800013F0100F08D0834AD2F8883023F440732F
:102E9000A16C0B43C2F88830236813F0200F08D0D0
:102EA0007C4AD2F8883023F44063E16C0B43C2F8CB
:102EB0008830236813F4007F08D0764AD2F888302F
:102EC00023F44023E16D0B43C2F88830236813F4E8
:102ED000806F08D06F4AD2F8883023F44013216EF7
:102EE0000B43C2F88830236813F0400F08D0694ABA
:102EF000D2F8883023F44053216D0B43C2F8883058
:102F0000236813F0800F08D0624AD2F8883023F487
:102F10004043616D0B43C2F88830236813F4807F0F
:102F200008D05C4AD2F8883023F44033A16D0B43BB
:102F3000C2F88830236813F4005F0FD0554AD2F8E6
:102F4000883023F04063E16E0B43C2F88830E36EB3
:102F5000B3F1006F65D0B3F1806F67D0236813F4CD
:102F6000002F0FD04B4AD2F8883023F04063216FF6
:102F70000B43C2F88830236FB3F1006F5ED0B3F11A
:102F8000806F60D0236813F4802F0FD0414AD2F8AD
:102F9000883023F04063616F0B43C2F88830636F61
:102FA000B3F1006F57D0B3F1806F59D0236813F499
:102FB000804F0FD0374AD2F8883023F04053A16FAA
:102FC0000B43C2F88830A36FB3F1805F50D0B3F1E8
:102FD000005F55D0236813F4004F08D02D4AD2F873
:102FE000883023F08043E16F0B43C2F888302368B8
:102FF00013F4803F09D0274AD2F8883023F00043E9
:10300000D4F880100B43C2F88830384602B0BDE8CF
:10301000F0813746FBE61F4A936D23F0805393659A
:10302000F9E6D36843F48013D36097E70121201DAC
:10303000FFF7AAFC002891D007468FE7D36843F436
:103040008013D3609EE70121201DFFF79DFC00281F
:1030500098D0074696E7D36843F48013D360A5E77A
:103060000121201DFFF790FC00289FD007469DE717
:103070000221201DFFF788FC0028ABD00746A9E7F6
:10308000022104F12000FFF737FD0028A2D00746F7
:10309000A0E700BF00100240F0B583B000236BE052
:1030A00085685E000324B44025EA0405CC68B4407A
:1030B0002C438460456825EA0C054C68C4F3001471
:1030C0009C402C43446069E0C56A25EA0C05C4F3C2
:1030D000C0049C402C43C46266E0DD08083550F80B
:1030E000254003F0070C4FEA8C0C4FF00F0E0EFA40
:1030F0000CFE24EA0E0E0C6904FA0CF444EA0E04E9
:1031000040F8254067E0062400E0002404FA0EF4AD
:103110002C430CF1020C5C4D45F82C405B4CA5682F
:10312000D44325EA02064F6817F4801F01D042EA13
:103130000506564DAE60ED6804EA05064F6817F4C3
:10314000001F01D042EA0506504DEE606D6804EAAA
:1031500005064F6817F4003F01D042EA05064B4DC3
:103160006E602D682C404E6816F4803F01D042EA14
:103170000504464A146001330A6832FA03F400F089
:1031800081804FF0010C0CFA03FC1CEA0202F2D021
:103190004C6804F00304013C012C81D94C6804F014
:1031A000030EBEF1030F8FD04C6804F00304032C10
:1031B0000CD0C4685D004FF0030C0CFA05FC24EA47
:1031C0000C0C8C68AC4044EA0C04C4604C6804F0FD
:1031D0000304022C81D004684FEA430E4FF0030C25
:1031E0000CFA0EFC24EA0C0C4C6804F0030404FAFC
:1031F0000EF444EA0C0404604C6814F4403FBAD066
:10320000234C256E45F001052566246E04F001046B
:103210000194019C4FEA930C0CF102051A4C54F8EE
:10322000255003F0030E4FEA8E0E0F2404FA0EF41D
:1032300025EA0405B0F1904F3FF467AF154CA0426A
:1032400016D004F58064A04214D004F58064A04236
:1032500012D004F58064A04210D004F58064A0422E
:103260000ED004F58064A0423FF44DAF07244DE733
:1032700001244BE7022449E7032447E7042445E7F8
:10328000052443E703B0F0BD000001400004014005
:1032900000100240000400480AB181617047816259
:1032A00070470000024B186800F4C060704700BF10
:1032B00000700040B0F5007F0FD01F4B1B6803F477
:1032C000C063B3F5806F34D01B4A136823F4C06326
:1032D00043F48063136000207047174B1B6803F4AE
:1032E000C063B3F5007F20D0134A136823F4C06392
:1032F00043F400731360114B1B68322202FB03F38B
:103300000F4AA2FB03239B0C013300E0013B0A4A56
:10331000526912F4806F01D0002BF7D1064B5B6924
:1033200013F4806F03D10020704700207047032002
:1033300070470020704700BF007000400800002068
:1033400083DE1B43002808DB0901C9B200F160409D
:1033500000F5614080F80013704700F00F0009018C
:10336000C9B2014B1954704714ED00E000B500F0EC
:103370000700C0F1070CBCF1040F28BF4FF0040C8C
:10338000031D062B0FD9C31E4FF0FF3E0EFA0CF0A3
:1033900021EA000199400EFA03FE22EA0E0241EAF8
:1033A00002005DF804FB0023EEE70000074AD36843
:1033B00023F4E0631B041B0C000200F4E0600343F1
:1033C00043F0BF6343F40033D360704700ED00E087
:1033D00010B50446054BD868C0F30220FFF7C6FFBE
:1033E00001462046FFF7AEFF10BD00BF00ED00E034
:1033F0000138B0F1807F0BD24FF0E0235861054ACD
:10340000F02182F823100020986107221A6170478A
:103410000120704700ED00E02DE9F04782B005463D
:10342000884617461E46FEF7FDFD0A9B1B1A03EB56
:103430000609FEF7F7FD8246284B1B68C3F3CB3322
:1034400009FB03F301932B689C6838EA04040CBF62
:1034500001230023BB423DD0B6F1FF3FF3D0FEF77E
:10346000E1FDA0EB0A00484503D2019B73BB9946DE
:10347000E9E72A68536823F0E00353606B68B3F50B
:10348000827F0BD0AB6AB3F5005F14D0012385F8BF
:103490005D30002385F85C3003201CE0AB68B3F599
:1034A000004F02D0B3F5806FECD12A68136823F087
:1034B00040031360E6E72A68136823F4005313609F
:1034C0002A68136843F400531360DFE7019B013B54
:1034D0000193B8E7002002B0BDE8F08708000020A3
:1034E0002DE9F04782B006460C4615461F460023DC
:1034F0008DF80330FEF796FD0A9B1B1A03EB0708B5
:10350000FEF790FD8146D6F800A0304B1B6803EB18
:103510008303C3EBC3031B0D08FB03F3019302E01A
:10352000B7F1FF3F12D133689B6803EA040CAC4546
:1035300047D0B4F5C06FF3D1002DF1D19AF80C301B
:10354000DBB28DF803309DF80330E9E7FEF76AFD42
:10355000A0EB0900404503D2019B73BB9846E2E70C
:103560003268536823F0E00353607368B3F5827FD9
:103570000BD0B36AB3F5005F14D0012386F85D3039
:10358000002386F85C3003201CE0B368B3F5004FDD
:1035900002D0B3F5806FECD13268136823F040039A
:1035A0001360E6E73268136823F40053136032684F
:1035B000136843F400531360DFE7019B013B019361
:1035C000B1E7002002B0BDE8F08700BF080000208E
:1035D00070B582B004460D46164600920B46002296
:1035E0004FF4C051FFF77CFFB0B900962B46002284
:1035F00080212046FFF710FFA8B900962B46002235
:103600004FF4C0612046FFF76BFF50B1236E43F0CB
:1036100020032366032004E0236E43F02003236687
:10362000032002B070BD236E43F020032366032005
:10363000F7E700286AD010B50446436A33B94368F7
:10364000B3F5827F05D00023C36102E0002303614C
:1036500043610023A36294F85D30002B4DD0022318
:1036600084F85D302268136823F040031360E36838
:10367000B3F5E06F47D90022B3F5706F04D0B3F50E
:10368000E06F01D00023A362636803F48273A16832
:1036900001F404410B43216901F002010B4361690C
:1036A00001F001010B43A16901F400710B43E169D1
:1036B00001F038010B43216A01F080010B43A16A3C
:1036C00001F4005120680B430360638B03F0040393
:1036D000616A01F010010B43616B01F008010B43BB
:1036E000E16801F470610B43216813434B600020D3
:1036F0002066012384F85D3010BD84F85C302046DC
:10370000FDF7F2FCABE74FF48052B5E701207047BC
:103710002DE9F8430446884691461F46089DFEF76A
:1037200081FC064694F85D306268012B0BD0D9B25B
:10373000B2F5827F40F05B81A368002B40F05A8194
:10374000042940F05981B8F1000F00F05781B9F118
:10375000000F00F05581002F00F0548194F85C3088
:10376000012B00F05181012384F85C3094F85D3026
:10377000042B02D0052384F85D3000232366C4F8AF
:103780004090A4F84670A4F84470C4F83880E787E5
:10379000A787E3642365E368B3F5E06F01D8012FE1
:1037A00023D92268536823F48053536023681A682E
:1037B00012F0400F03D11A6842F040021A60E36829
:1037C000B3F5E06F5FD963680BB1012F0BD1A26B2A
:1037D00023681288DA60A36B0233A363E38F9BB282
:1037E000013B9BB2E387012730E02268536843F432
:1037F00080535360DAE7A26B1288DA60A36B02335E
:10380000A363E38F9BB2013B9BB2E387002723684E
:103810009A6812F0010F11D0B4F8462092B26AB142
:10382000DA68236C1A80236C02332364B4F84630C0
:103830009BB2013B9BB2A4F846300127FEF7F2FB96
:10384000831BAB4202D3B5F1FF3F14D1E38F9BB290
:103850002BB9B4F846309BB2002B00F0B18023683E
:103860009A6812F0020FD2D0E28F92B2002ACED024
:10387000002FCCD0BFE7012384F85D30002384F80B
:103880005C300320B4E063680BB1012F0FD1E38FEC
:103890009BB2012B0DD9A26B23681288DA60A36B4F
:1038A0000233A363E38F9BB2023B9BB2E387012702
:1038B00049E0A26B236812781A73A36B0133A363E8
:1038C000E38F9BB2013B9BB2E387F0E7E28F92B2BA
:1038D000012A0CD9A26B1288DA60A36B0233A363AE
:1038E000E38F9BB2023B9BB2E38700273DE0A26BD4
:1038F00012781A73A36B0133A363E38F9BB2013B6E
:103900009BB2E387002730E02268536843F480537A
:10391000536001270DE0226C1B7B1370236C013375
:103920002364B4F846309BB2013B9BB2A4F8463006
:103930000127FEF777FB801BA84202D3B5F1FF3FBA
:1039400036D1002D34D0E38F9BB223B9B4F8463082
:103950009BB2002B34D023689A6812F0020F04D077
:10396000E28F92B20AB1002FB0D123689A6812F0A8
:10397000010FDED0B4F8462092B2002AD9D0B4F8B4
:10398000462092B2012AC6D9DA68236C1A80236CC9
:1039900002332364B4F846309BB2023B9BB2A4F8D6
:1039A0004630B4F846309BB2012BADD90127C0E7B1
:1039B000012384F85D30002384F85C30032017E095
:1039C000324629462046FFF703FE48B9012384F812
:1039D0005D30002384F85C30236E4BB1012007E09A
:1039E00020232366002384F85C30012000E00220BD
:1039F000BDE8F8830220FBE70220F9E70120F7E7A2
:103A00000120F5E70120F3E70220F1E7026852E820
:103A1000003F23F4907342E800310029F6D1026898
:103A200002F1080353E8003F23F00103083242E8A3
:103A300000310029F3D1036E012B06D02023C0F8FA
:103A400080300023036683667047026852E8003FB7
:103A500023F0100342E800310029F6D1EEE7000020
:103A600010B5044683680269134342691343C2696F
:103A70001343016808688F4A02401A430A602268AB
:103A8000536823F44053E1680B435360A1692268F3
:103A9000894B9A4201D0236A1943936823F4306317
:103AA0000B4393602368854A934210D0844A934223
:103AB00021D0844A93424DD0834A93425DD0834AB9
:103AC00093426CD07C4A93427ED010222BE002F5C8
:103AD0005842D2F8882002F00302032A09D8DFE80E
:103AE00002F00204880601221DE004221BE00822E5
:103AF00019E0102217E002F5E632D2F8882002F031
:103B00000C020C2A0ED8DFE802F0070D0D0D090D8E
:103B10000D0D760D0D0D0B00002204E0042202E0D5
:103B2000082200E0102264498B4200F08680E069A0
:103B3000B0F5004F00F0B280082A00F21981DFE8EA
:103B400012F0ED000001EB0017010301170117014E
:103B50001701060102F5E432D2F8882002F03002A3
:103B6000202A4AD005D8002A49D0102A49D1042257
:103B7000D9E7302A47D10822D5E702F5E232D2F858
:103B8000882002F0C002802A3FD004D8FAB3402A2D
:103B90003FD10422C7E7C02A3DD10822C3E702F57E
:103BA000E032D2F8882002F44072B2F5007F34D0BF
:103BB00005D8A2B3B2F5807F33D10422B3E7B2F5C2
:103BC000407F30D10822AEE702F5C832D2F8882013
:103BD00002F44062B2F5006F27D005D83AB3B2F5CF
:103BE000806F26D104229EE7B2F5406F23D10822D0
:103BF00099E7022297E7022295E7022293E7002243
:103C000091E710228FE710228DE702228BE7002236
:103C100089E7102287E7102285E7022283E7002246
:103C200081E710227FE710227DE702227BE7002256
:103C300079E7102277E7102275E7082A00F28A80D8
:103C4000DFE802F0088810880D88888805004FF4A6
:103C5000004008E0FEF774FE28B9002089E0FEF776
:103C600043FAF9E71A48626802EB4203834273D8C9
:103C7000B0EB023F72D8010E00025308C0184FF09B
:103C8000000341F10001FCF76FFFA0F54072114BFA
:103C90009A4265D82368D86000206AE0082A61D873
:103CA000DFE802F01A340560376060601E000848E3
:103CB00016E000BFF369FFEF0080004000380140CC
:103CC0000044004000480040004C004000500040CC
:103CD0000024F400FFFC0F00FEF732FE002843D062
:103CE0006268530803EB4003B3FBF2F3A3F1100146
:103CF0004FF6EF72914239D89AB222F00F02C3F315
:103D0000420313432268D360002032E0FEF72AFE0C
:103D1000E4E7FEF7E9F9E1E71A4802E0FEF710FEF2
:103D200058B3636800EB5300B0FBF3F0A0F110024E
:103D30004FF6EF739A4222D8236880B2D8600020F1
:103D400017E0FEF70FFEEBE7FEF7CEF9E8E74FF4DA
:103D50000040E6E701200CE001200AE0012008E035
:103D6000012006E0012004E0002002E0012000E044
:103D700001200023A366E36610BD0020F9E70120BF
:103D8000F7E700BF0024F400436A13F0080F06D0E1
:103D90000268536823F40043416B0B435360436A4A
:103DA00013F0010F06D00268536823F40033816AD0
:103DB0000B435360436A13F0020F06D00268536846
:103DC00023F48033C16A0B435360436A13F0040F3A
:103DD00006D00268536823F48023016B0B435360C1
:103DE000436A13F0100F06D00268936823F48053DF
:103DF000816B0B439360436A13F0200F06D0026877
:103E0000936823F40053C16B0B439360436A13F030
:103E1000400F0AD00268536823F48013016C0B43EF
:103E20005360036CB3F5801F0BD0436A13F0800F0F
:103E300006D00268536823F40023816C0B4353605F
:103E400070470268536823F4C003416C0B4353600E
:103E5000EBE72DE9F84305460E4617469946DDF88F
:103E600020802B68DC6936EA04040CBF012400249E
:103E7000BC4236D1B8F1FF3FF3D0FEF7D3F8A0EB48
:103E80000900404530D8B8F1000F2FD02B681A68D0
:103E900012F0040FE5D0802EE3D0402EE1D0DA6995
:103EA00012F0080F11D1DA6912F4006FD9D04FF473
:103EB00000621A622846FFF7A9FD2023C5F8843066
:103EC000002385F8783003200CE008241C62284683
:103ED000FFF79CFDC5F88440002385F87830012069
:103EE00000E00020BDE8F8830320FBE70320F9E7AA
:103EF0002DE9F04182B01E46C36F202B5BD10446F2
:103F00000D46904600295AD00AB9012054E00023FA
:103F1000C0F884302123C367FEF784F80746A4F86D
:103F20005080A4F85280A368B3F5805F02D04FF0B0
:103F300000081AE0236963B34FF0000815E020235E
:103F4000E367032038E038F8023B2268C3F3080334
:103F50009362E36F03F02103212B32D1B4F8522096
:103F600092B2013A92B2A4F85220B4F852309BB205
:103F700093B100963B46002280212046FFF769FF5F
:103F80000028DCD1002DDED015F8012B23689A62C1
:103F9000DFE7A8460025E8E700963B4600224021DF
:103FA0002046FFF756FF10B92023E36704E02023E3
:103FB000E367032000E0022002B0BDE8F0810120A9
:103FC000FAE70120F8E730B583B004460023C0F8D3
:103FD0008430FEF727F805462268126812F0080FB1
:103FE0000FD123681B6813F0040F26D12023E36749
:103FF000C4F8803000202066606684F8780003B042
:1040000030BD6FF07E430093034600224FF4001151
:104010002046FFF71EFF0028E3D0226852E8003F49
:1040200023F0800342E800310029F6D12023E36722
:10403000002384F878300320E1E76FF07E4300939B
:104040002B4600224FF480012046FFF702FF002894
:10405000CCD0226852E8003F23F4907342E800314C
:104060000029F6D1226802F1080353E8003F23F04B
:104070000103083242E800310029F3D12023C4F8BB
:104080008030002384F878300320B8E768B310B597
:104090000446C36F03B32423E3672268136823F045
:1040A00001031360636AE3B92046FFF7D9FC0128D6
:1040B00011D02268536823F49043536022689368B8
:1040C00023F02A0393602268136843F0010313600E
:1040D0002046FFF778FF10BD80F87830FDF754F8E0
:1040E000D9E72046FFF750FEDEE7012070470000C9
:1040F000034AD2F8883043F47003C2F8883070471E
:1041000000ED00E008B5012240210348FFF7C4F8A4
:104110000A20FDF78DFF08BD00040048072846D897
:10412000F0B595B013AC0022ADF84C208DF84E20C0
:1041300012AEADF848208DF84A20830843F00603FC
:104140008DF84C3080018DF84D001C4D40212846E3
:10415000FFF7A2F864270097032332462146184848
:10416000FFF7D6FA04469DF849309DF84A2002AE82
:10417000019200939DF84830124A4021304600F0E9
:1041800087FD3B46122231460F48FFF7B1FE012260
:1041900040212846FFF780F864B99DF849309DF822
:1041A0004A001B0203F47063184315B0F0BD4FF6CC
:1041B000FF7070474FF6FF70F7E700BF000400483C
:1041C000DC0200203875000840030020D1B110B592
:1041D0000C46FFF7A3FF4FF6FF7398420CD02080E8
:1041E00007EE900AF8EE677A9FED077A67EE877A16
:1041F000C4ED017A002010BD0023238000236360FA
:104200000120F8E7012070476740533ADFF834D0C7
:10421000FFF76EFF0C480D490D4A002302E0D45809
:10422000C4500433C4188C42F9D30A4A0A4C002300
:1042300001E013600432A242FBD300F0F5FDFCF76D
:1042400044FEFEE70080012000000020D80100208D
:1042500030790008D80100201C050020FEE72DE978
:10426000FF4757EC106B002F0C4619463B46BBBF6F
:1042700007F100431F4600232D230B700D9BDDF833
:1042800030A0914623F02008BCBF32461646B8F154
:10429000460F05D0B8F1450F00D10134022100E0EE
:1042A000032103AB019302AB009347EC106B534621
:1042B000224600F069FEB8F1470F054619D119F002
:1042C000010F0ED000EB04090022002330463946CE
:1042D000FCF7DAFB08B1CDF80C903022039B4B457C
:1042E0001ED3039B0E9A5B1B2846136004B0BDE8E7
:1042F000F087B8F1460F00EB0409E5D10378302BC5
:104300000AD10022002330463946FCF7BDFB18B91C
:10431000C4F10104CAF80040DAF800309944D3E748
:10432000591C03911A70D9E7F7B50029BABF494261
:104330002D232B2309290270437029DD0DF1070479
:1043400025460A272246B1FBF7F607FB1613303342
:1043500002F8013C0B46632B04F1FF343146F1DCDB
:104360003031931E04F8011C411C1C46AB420AD399
:104370000DF109039B1AA54238BF0023821C134488
:10438000181A03B0F0BD13F8016B01F8016FEDE7E7
:10439000302330318370C170031DF1E72DE9F04FF8
:1043A0008DB00C46DDF8588016461F46054600F0D5
:1043B000F1FC036806931846FBF73AFF00230A93C3
:1043C000D8F8003094F818A0D4F800B0079007335C
:1043D00023F00703B3EC027B8DED047BC8F80030BB
:1043E000DDE9048323F0004984ED127B9C4B4FF000
:1043F000FF3240464946FCF779FB70BB984B4FF0C3
:10440000FF3240464946FCF753FB30BBDDE904016F
:1044100000220023FCF742FB10B12D2384F8433027
:10442000904A914BBAF1470F8CBF904698460323B0
:1044300023612BF0040323604FF0000900973346FB
:104440000BAA2146284600F0D1F9013040F08C80BB
:104450004FF0FF300DB0BDE8F08FDDE904231046CA
:104460001946FCF743FB40B1059B804A002BBCBFBB
:104470002D2384F843307E4BD4E763685A1C0AF03E
:10448000DF093BD1062363604BF480620023226086
:1044900003930AABCDE901A309AB009361689DEDDD
:1044A000040B0DF123032846FFF7D9FEB9F1470F9E
:1044B0000999804629D1C81C02DB63688B4241DA26
:1044C000AAF1020A5FFA8AFA0139524604F1500051
:1044D0000991FFF729FF0A9A1318012A81462361DF
:1044E00002DC2268D20701D5013323619DF8233015
:1044F000002BA3D02D2384F843309FE7B9F1470F59
:10450000C2D1002BC0D10123BDE7BAF1650FDBD9C1
:10451000BAF1660F18D1002963680BDD216113B968
:104520002268D00702D501330B442361A1654FF007
:104530000009DBE713B92268D20701D50233F4E79B
:104540000123F2E74FF0670A0A9B8B4205DC2368E0
:104550002161D807EAD54B1CE7E70029D4BFC1F198
:10456000020201221344E0E723685A0507D42369B5
:10457000424631462846B84701302BD168E7BAF1A8
:10458000650F40F2DD80D4E9120100220023FCF720
:104590007BFA002833D0374A012331462846B847F2
:1045A00001303FF455AFDDE90938434502DB2368AC
:1045B000D8070FD5DDE9062331462846B847013034
:1045C0003FF446AF4FF0000908F1FF3804F11A0A32
:1045D000C84509DC23689B0700F10381E0680B9B59
:1045E0009842B8BF184635E701235246314628465F
:1045F000B84701303FF42CAF09F10109E8E7099B06
:10460000002B39DC1B4A012331462846B8470130CC
:104610003FF41EAFDDE9093959EA030302D12368EB
:10462000D907D7D5DDE9062331462846B8470130FA
:104630003FF40EAF4FF0000A04F11A0B099B5B42E6
:10464000534501DC4B4693E701235A463146284641
:10465000B84701303FF4FCAE0AF1010AEEE700BFB3
:10466000FFFFEF7FA07500089C750008A875000883
:10467000A4750008AC750008A36DDDF828A05345AB
:10468000A8BF5346002B994636DC4FF0000B29EAB1
:10469000E97904F11A02A36D0493A3EB09035B45C6
:1046A00031DC099B9A453ADC2368DA0737D4099B49
:1046B000AAEB0309049BAAEB03039945A8BF9946FB
:1046C000B9F1000F33DC4FF0000829EAE97904F171
:1046D0001A0B099BAAEB0303A3EB090343457FF7DE
:1046E00079AF01235A4631462846B84701303FF496
:1046F000AFAE08F10108ECE7424631462846B8471C
:104700000130C2D1A4E60123314628460492B847BD
:1047100001303FF49DAE049A0BF1010BBBE7DDE9DC
:10472000062331462846B8470130C0D190E6049AA6
:104730004B46424431462846B8470130C3D187E64C
:10474000DDF828A0BAF1010F01DCDB0736D5012323
:10475000424631462846B84701303FF479AEDDE99C
:10476000062331462846B84701303FF471AED4E9FC
:104770001201002200230AF1FF3AFCF785F9C0B9C3
:10478000534608F1010231462846B84701300CD1A2
:104790005EE601235A4631462846B84701303FF4C9
:1047A00057AE08F10108D045F3DB4B4604F1500247
:1047B000DFE64FF0000804F11A0BF4E7012342464C
:1047C000E1E701234A4631462846B84701303FF425
:1047D0003FAE08F10108E3680B995B1A4345F0DC32
:1047E000FCE64FF0000804F11909F4E72DE9F04761
:1047F000164698468A680B69DDF820909342B8BF48
:104800001346336091F8432007460C460AB1013342
:1048100033602368990642BF3368023333602568EA
:1048200015F0060506D104F1190AE36832689B1AEF
:10483000AB4226DC94F843302268003B18BF0123CA
:1048400092062BD404F1430241463846C847013052
:104850001ED02368226903F00603042B02BFE5681B
:104860003368ED1AA3680CBF25EAE575002593426D
:10487000C4BF9B1AED1800261A34B5421AD1002085
:1048800008E00123524641463846C847013003D16B
:104890004FF0FF30BDE8F0870135C6E7E1185A1C3C
:1048A000302081F84300224494F8451082F84310E8
:1048B0000233C7E70123224641463846C847013044
:1048C000E6D00136D9E700002DE9FF470F7E0C9EA8
:1048D000782F914680460C469A4601F1430207D84C
:1048E000622F0AD8002F00F0D280582F00F0B78036
:1048F00004F1420684F842703AE0A7F16303152BF5
:10490000F6D801A151F823F0614900087549000863
:10491000F1480008F1480008F1480008F148000893
:1049200075490008F1480008F1480008F1480008FE
:10493000F1480008754A00089F4900082B4A000802
:10494000F1480008F1480008974A0008F1480008BB
:104950009F490008F1480008F1480008334A000860
:1049600033681A1D1B68326004F1420684F8423035
:1049700001239DE033682068191D3160060601D5CA
:104980001D6803E04506FBD5B3F90050002D03DA9E
:104990002D236D4284F8433059480A2310E02168E2
:1049A0003368080653F8045B02D4490648BFADB229
:1049B0006F2F5348336059D10823002184F84310E6
:1049C0006668A660002E05DB21682E4321F00401F5
:1049D00021604DD01646B5FBF3F103FB1157C75DBF
:1049E00006F8017D2F46BB420D46F4D9082B0BD1AA
:1049F0002368DF0708D5236961689942DEBF302349
:104A000006F8013C06F1FF36921B2261CDF800A0AA
:104A10004B4603AA21464046FFF7E8FE01304CD141
:104A20004FF0FF3004B0BDE8F087236843F0200367
:104A300023603448782784F84570236831681F065E
:104A400051F8045B02D45F0648BFADB23160D907AC
:104A500044BF43F0200323601DB11023ADE7284875
:104A6000E9E7236823F020032360F6E70A23A4E79D
:104A70001646BBE7336825686169181D30602E064D
:104A80001B6801D5196002E06806FBD51980002378
:104A900023611646BAE733681A1D32601E686268E1
:104AA00000213046FBF774FB08B1801B606063682F
:104AB0002361002384F84330A8E72369324649463E
:104AC0004046D0470130ABD023689B0713D4E06841
:104AD000039B9842B8BF1846A4E7012332464946D3
:104AE0004046D04701309BD00135E36803995B1AFB
:104AF000AB42F2DCEBE7002504F11906F5E700BF55
:104B0000AE750008BF750008002310B50446C0E963
:104B10000033C0E90433836081814366C2818361CD
:104B2000194608225C3000F02DF90D4B63620D4BE5
:104B3000A3620D4BE3620D4B23630D4B24629C4239
:104B400006D003F16802944202D0D0339C4205D1D2
:104B500004F15800BDE8104000F08AB910BD00BF54
:104B6000FD4C00081F4D0008574D00087D4D000802
:104B7000CC030020024A0349034800F06BB800BF91
:104B80000C000020156800081C00002041680C4B38
:104B9000994210B5044601D001F03CFEA168094BD2
:104BA000994202D0204601F035FEE168064B994259
:104BB00004D02046BDE8104001F02CBE10BD00BF5F
:104BC000CC030020340400209C0400200C4B0D4A30
:104BD0000D4810B504211A600022FFF795FF0A4B1B
:104BE00001221C46092103F16800FFF78DFF04F143
:104BF000D0000222BDE810401221FFF785BF00BFA0
:104C000004050020754B0008CC030020014800F08B
:104C100030B900BF0D050020014800F02BB900BFDE
:104C20000D05002010B50446FFF7F0FF236A1BB105
:104C3000BDE81040FFF7F0BF044B2362044B1B6834
:104C4000002BF5D1FFF7C2FFF2E700BF8D4B000844
:104C5000040500202DE9F84307468846144600263F
:104C6000D4E90195B9F1010905D52468002CF7D1E3
:104C70003046BDE8F883AB89012B07D9B5F90E3072
:104C8000013303D029463846C04706436835E9E773
:104C90000CB430B5184B0C1E1D689DB008DA8B2380
:104CA0002B604FF0FF301DB0BDE8304002B07047C0
:104CB0004FF40273ADF814304FF000031B9314BF90
:104CC00004F1FF332346049307934FF6FF730290DA
:104CD0000690ADF81630209A21AB02A92846019320
:104CE00001F01AFC431CBCBF8B232B60002CDAD0D4
:104CF000029B00221A70D6E71800002010B50C465F
:104D0000B1F90E1000F06CF80028ABBF636DA389F9
:104D10001B1823F48053ACBF6365A38110BD2DE93C
:104D2000F0411F468B89DB0505460C46164605D526
:104D3000B1F90E100223002200F040F8A389B4F963
:104D40000E1023F48053A38132463B462846BDE82B
:104D5000F04100F057B810B50C46B1F90E1000F054
:104D60002DF8B4F90C30421C0BBF23F4805343F4EC
:104D70008053A381A38118BF606510BDB1F90E10E7
:104D800000F00CB802440346934200D1704703F888
:104D9000011BF9E7004870475801002038B5064D5F
:104DA0000023044608462B6002F0CCF8431C02D1D5
:104DB0002B6803B1236038BD0805002038B5074DC6
:104DC00004460846114600222A601A4602F0E2F81C
:104DD000431C02D12B6803B1236038BD08050020B5
:104DE00038B5074D04460846114600222A601A4687
:104DF00002F0D8F8431C02D12B6803B1236038BD00
:104E00000805002038B5074D044608461146002223
:104E10002A601A4602F0DCF8431C02D12B6803B169
:104E2000236038BD0805002070B50D4B0D4D5B1B90
:104E30009C100026A64209D102F050FA0A4D0B4BF5
:104E40005B1B9C100026A64205D170BD55F8043BA3
:104E500098470136EEE755F8043B98470136F2E7EC
:104E600020790008207900082079000824790008BA
:104E70007047704770472DE9F74F03690C69A342EB
:104E800007467EDB013C01F11408A30000F1140584
:104E9000009305EB8403019358F8243055F824203F
:104EA00001339A4208EB8409B2FBF3F62ED34FF09C
:104EB000000AC446AE46D3465CF8043B98B206FBF3
:104EC00000A0020C1B0C06FB0323DEF8002080B2BE
:104ED00092B2121A5A44DEF800004FEA134A9BB20B
:104EE000C3EB224303EB104392B242EA0342E14593
:104EF0004EF8042B4FEA234BDED2009BEB582BB924
:104F0000019B043B9D421A462FD33C61384601F079
:104F100097F9002825DB2946002058F8042BD1F802
:104F200000C01FFA82FE1FFA8CF3A3EB0E030344AA
:104F3000120CC2EB234202EB1C429BB243EA024337
:104F4000C14541F8043B4FEA2240E6D255F82420FF
:104F500005EB840322B9043B9D421A460BD33C6106
:104F60000136304603B0BDE8F08F1268043B002ADA
:104F7000CBD1013CC6E71268043B002AEFD1013CCB
:104F8000EAE70020EEE700002DE9F04F99B08DED43
:104F90000E0B0C92C269229C0A9157EC106B814651
:104FA000139382B9102000F019FE0246C9F81C00C4
:104FB00020B9AD4BEF21AD4801F08CFC0023C0E9D6
:104FC00001330360C360116859B152684A6001231C
:104FD00093408B60484600F0F5FED9F81C30002263
:104FE0001A60B7F10008B5BF0123002323602360D6
:104FF0009F4BBCBF28F00048CDF83C8033EA080343
:105000001AD1139AC8F3130842F20F7358EA06082C
:10501000136000F06C85239B53B9964B21E0964BAF
:1050200000930833239A1360009819B0BDE8F08FFD
:10503000904B00930333F5E79DED0E7B002251EC7E
:10504000170B00238DED067BFBF71EFD824650B14A
:10505000139A01231360239B13B1239A874B136088
:10506000874B0093E0E79DED060B16AA17A948466B
:1050700001F09AF95FEA1854169D019079D0079BC8
:10508000CDF850A0C3F31303DDE9060143F07F53CD
:1050900043F44013A4F2FF3419460022794BFBF786
:1050A000D3F86BA3D3E90023FBF786FA6AA3D3E90D
:1050B0000023FBF7CBF8064620460F46FBF712FA13
:1050C00067A3D3E90023FBF777FA02460B46304685
:1050D0003946FBF7BBF806460F46FBF71DFD0022DD
:1050E0008046002330463946FBF7D8FC48B140469D
:1050F000FBF7F8F932463B46FBF7C6FC08B908F166
:10510000FF38B8F1160F51D85F4B03EBC803D3E952
:105110000023DDE90601FBF7C1FC002848D008F1B7
:10512000FF38002312932D1B6B1E089343BF0023EF
:10513000C5F1010708930027B8F1000F3ADB089B7F
:10514000CDF8348043440893002309930A9B092B2C
:1051500064D8052BC4BF043B0A930A9BA3F1020346
:10516000CCBF00240124032B64D8DFE803F053559F
:10517000362B179C2C4404F23243202BC1BFC3F1C1
:10518000400308FA03F804F2124326FA03F3D6BFE9
:10519000C3F1200348EA030006FA03F0FBF792F993
:1051A0000122A1F1F873013C149275E70123B9E7DC
:1051B0001290B8E7C8F1000309930023A7EB080792
:1051C0000D93C3E701230B930C9B434405930133D9
:1051D000012B0493B8BF012306E001230B930C9B22
:1051E000002B2ADDCDE90433D9F81C00002104226C
:1051F00002F114059D4201F1010623D941604846A0
:1052000000F0A2FD0090002842D1204B024640F25F
:10521000AF11D0E60023E1E70023D4E70124002307
:10522000CDE90A344FF0FF33CDE9043300221223D5
:105230000C92D9E701230B93F4E70123CDE9043362
:105240001A46F5E752003146D2E700BFAFF30080BF
:1052500061436F63A787D23FB3C8608B288AC63F7C
:10526000FB799F501344D33FDD750008F4750008A7
:105270000000F07FD9750008D0750008AD750008F2
:10528000AC7500080000F83F487700084D7600082C
:10529000D9F81C30009A1A60049B0E2B00F2A180F2
:1052A000002C00F09E80B8F1000F36DD9E4B08F018
:1052B0000F0203EBC20318F4807FD3E900AB4FEA7F
:1052C000281516D0994BDDE90601D3E90823FBF731
:1052D0009DFACDE9020105F00F050324934E75B93F
:1052E000DDE9020152465B46FBF790FA82468B46A7
:1052F0002DE09DED067B02248DED027BEEE7E907B4
:1053000008D550465946D6E90023FBF755F9013434
:1053100082468B466D100836E1E700F0AD80C8F19B
:105320000005814B814E05F00F0203EBC203D3E968
:105330000023DDE90601FBF73FF92D1182468B467C
:1053400000230224002D40F08C80002BCED1129B34
:10535000002B00F09580764B002250465946FBF713
:105360009DFB002800F08C80049B002B00F08880BF
:10537000059B002B35DD08F1FF330293504659465B
:105380006C4B0022FBF718F9059E82468B460134D0
:105390002046FBF7A7F852465B46FBF70DF9664B34
:1053A0000022FAF753FF0446A1F15075CDE91045EC
:1053B000002E69D1614B002250465946FAF744FF4E
:1053C00022462B4682468B46FBF786FB002840F0A0
:1053D0009482224605F1004350465946FBF75EFB96
:1053E00020BB179B002BC0F26081B8F10E0F00F3B9
:1053F0005C814D4B03EBC803D3E900AB0C9B002B46
:1054000080F2EE80049B002B00F3EA800ED14B4B20
:10541000002250465946FBF7CFF802460B46DDE91D
:105420000601FBF745FB002800F06A8200252C46A8
:105430000C9B009EDB4302932746002429464846E6
:1054400000F0C0FC002F00F0C1802CB1BC4203D0A2
:105450002146484600F0B6FC3946484600F0B2FC0A
:10546000B4E0EA0705D5D6E90023FBF7A5F8013437
:1054700001236D10083665E7DDE906AB022466E717
:10548000049ECDF8088083E7274B03EBC60353E95E
:1054900002010B9B002B55D002460B4600202849E9
:1054A000FBF7B4F9DDE91023FAF7CEFE009BCDE956
:1054B00010019D191E4659465046FBF72DFB044628
:1054C000FBF710F802460B4650465946FAF7BCFE69
:1054D0003034DDE9102306F8014B82468B46FBF79A
:1054E000DDFA002872D152465B4611490020FAF7D6
:1054F000ABFEDDE91023FBF7D1FA002840F0B680BF
:10550000AE423FF46EAFDDE910010A4B0022FBF71B
:1055100053F8084BCDE91001002250465946FBF7DD
:105520004BF882468B46C6E748770008207700088C
:105530000000F03F0000244000001C400000144028
:105540000000E03FDDE91023FBF736F8009B009DEB
:10555000CDE910013344159359465046FBF7DCFA68
:105560000446FAF7BFFF30340B4602465946504610
:10557000FAF76AFE05F8014B159B9D4282468B4661
:1055800027D1009B0022DDE910011E44B34BFAF73E
:105590005DFE02460B4650465946FBF79DFA002831
:1055A00064D1DDE91023AD490020FAF74DFE024633
:1055B0000B4650465946FBF771FA00283FF411AFED
:1055C000334616F8012D302AFAD01E46DDF8088041
:1055D0003AE0A34B0022FAF7EFFF82468B46BBE787
:1055E000009E52465B46DDE90601FBF70FF9FBF72B
:1055F00093FA0746FAF776FF52465B46FAF7DCFF66
:1056000002460B46DDE90601FAF71EFE07F1300CF3
:10561000009C06F801CBA6EB040C049C64450246F2
:105620000B4633D1FAF712FE52465B4604460D464E
:10563000FBF752FAC0B952465B4620462946FBF7B3
:1056400023FA08B1FB070FD40199484600F0BAFBD2
:105650000023139A337008F101031360239B002B7E
:105660003FF4E2AC1E60DFE4CDF8088033461E460E
:1056700013F8012D392A06D1009A9A42F7D1029ADD
:1056800001320292302201321A709FE7744B0022DD
:10569000FAF792FF02460B46CDE9062300220023CB
:1056A000FBF7F2F900289CD0CEE70B9A002A00F015
:1056B000E3800A9A012A00F3C280149A002A00F0BB
:1056C000BA8003F23343099D3E46089A01211A44E9
:1056D00048461F44089200F029FC044656B1089B36
:1056E000002B07DDB342089AA8BF3346FF1AF61A0B
:1056F000D31A0893099B0BB30B9B002B00F0C380BC
:10570000002D00F0BD8021462A46484600F0CEFC20
:10571000019A01460446484600F01EFC0199824663
:10572000484600F04FFB099B5B1B099300F0AE80DD
:10573000099A5146484600F0B9FC019001214846BB
:1057400000F0F4FB0D9B0546002B00F0D7811A46B4
:105750000146484600F0AAFC0A9B012B054600F3CF
:105760009D800E9B002B40F094800F9BC3F313038E
:10577000002B40F08E800F9B23F000431B0D1B0578
:10578000002B00F08980089B0133013708934FF00C
:10579000010A0D9B002B00F0B7812B6905EB8303F9
:1057A000186900F077FBC0F12000089B184410F046
:1057B0001F007ED0C0F12003042B72DD089BC0F1D6
:1057C0001C000344074406440893002F05DD01999B
:1057D0003A46484600F0C6FC0190089B002B05DDC8
:1057E00029461A46484600F0BDFC0546129B002B90
:1057F00061D00198294600F023FD00285BDA08F10A
:10580000FF330293019900230A22484600F0FCFA74
:105810000B9B0190002B00F07981002321460A2286
:10582000484600F0F1FA059B002B044672DC0A9B07
:10583000022B49DC6EE0169BC3F1360343E7049B61
:105840005D1E099BAB420DDB5D1B049B002BBFF66D
:105850003BAF049BFE1A002337E700BF0000E03F88
:1058600000002440099B0D9A0995EB1A1A440D92E9
:10587000049B3E46002528E7099D0B9C3E462DE7EC
:10588000DDF804A054E7099A019953E7CDF804A084
:1058900054E74FF0000A7CE79A467AE74FF0000A97
:1058A0007BE792D0089A1C331A441F441E44089286
:1058B0008BE70346F6E7049BCDF80880002B23DC3A
:1058C00005930A9B022B21DD059B002B7FF4B0ADD5
:1058D00029460522484600F097FA014605460198F8
:1058E00000F0AEFC00287FF7A3AD009E312306F840
:1058F000013B029B013302939EE535462C46F4E7BB
:10590000049DCDF80880F9E7049B05930B9B002BC1
:1059100000F00081002E05DD21463246484600F0A9
:1059200021FC0446BAF1000F5AD06168484600F0E5
:105930000BFA064628B9824B024640F2EF21FFF7E8
:105940003ABB22690232920004F10C010C3000F0E3
:10595000B3FF01223146484600F004FC0746009B95
:10596000009A03F1010B059B134406930E9B03F071
:10597000010308930BF1FF33294601980493FFF7C5
:105980007AFA2146059000F1300A019800F058FC9F
:105990003A4680462946484600F06EFCC2680646F4
:1059A00002BB0146019800F04BFC024631464846D6
:1059B000099200F007FADDE9092342EA0301089B96
:1059C00019435E4610D1BAF1390F2BD0B8F1000F50
:1059D00002DD059B03F1310A049B83F800A02DE54D
:1059E0002746BCE70122E1E7B8F1000F06DB0A9B7E
:1059F00048EA0308089B58EA030820D1002AEBDD97
:105A000001990122484600F0ADFB2946019000F0C3
:105A100017FC002803DCDFD11AF0010FDCD0BAF14B
:105A2000390FD6D1049A3923137033461E46013BF1
:105A300016F8012C392A52D001321A70FEE4002ADD
:105A400007DDBAF1390FEDD0049A0AF101031370A2
:105A5000F4E4069B0BF801AC5B452AD001990023C6
:105A60000A22484600F0D0F9BC4201904FF00003F2
:105A70004FF00A022146484606D100F0C5F9044617
:105A800007460BF1010B75E700F0BEF939460446F5
:105A900000230A22484600F0B7F90746F1E7059BC4
:105AA0005E1E002B009BD8BF00265A1C27461644BA
:105AB000002401990122484600F054FB2946019038
:105AC00000F0BEFB0028B0DC02D11AF0010FACD10F
:105AD00033461E4613F8012D302AFAD0AEE4009A60
